{
  "contractName": "Produce",
  "abi": [
    {
      "inputs": [
        {
          "internalType": "uint256",
          "name": "_seedType",
          "type": "uint256"
        }
      ],
      "stateMutability": "nonpayable",
      "type": "constructor"
    },
    {
      "inputs": [],
      "name": "getProduceDetails",
      "outputs": [
        {
          "components": [
            {
              "internalType": "uint256",
              "name": "seedType",
              "type": "uint256"
            },
            {
              "internalType": "enum Produce.SEASON",
              "name": "season",
              "type": "uint8"
            }
          ],
          "internalType": "struct Produce.ProduceDetails",
          "name": "",
          "type": "tuple"
        }
      ],
      "stateMutability": "view",
      "type": "function"
    },
    {
      "inputs": [
        {
          "internalType": "string",
          "name": "_season",
          "type": "string"
        }
      ],
      "name": "setSeason",
      "outputs": [
        {
          "internalType": "uint256",
          "name": "",
          "type": "uint256"
        }
      ],
      "stateMutability": "nonpayable",
      "type": "function"
    }
  ],
  "bytecode": "0x608060405234801561001057600080fd5b506040516105403803806105408339818101604052810190610032919061007c565b806000800181905550506100a9565b600080fd5b6000819050919050565b61005981610046565b811461006457600080fd5b50565b60008151905061007681610050565b92915050565b60006020828403121561009257610091610041565b5b60006100a084828501610067565b91505092915050565b610488806100b86000396000f3fe608060405234801561001057600080fd5b50600436106100365760003560e01c80632d1e7f861461003b578063a340b76a1461006b575b600080fd5b61005560048036038101906100509190610305565b610089565b6040516100629190610367565b60405180910390f35b610073610120565b6040516100809190610437565b60405180910390f35b6000808290506000818051906020012090507fee13c5f0cd6bfb99fce7b1ce89b04a0972672e8a42e3ae279b96bddddc0b1cd98114806100e857507fd62d2facca79a0c4869e1a5c5f83766463999f60bbf949e50ad4b4ea2abffa4381145b1561011b5760008060010160006101000a81548160ff0219169083600381111561011557610114610391565b5b02179055505b600080fd5b61012861017f565b6000604051806040016040529081600082015481526020016001820160009054906101000a900460ff16600381111561016457610163610391565b5b600381111561017657610175610391565b5b81525050905090565b604051806040016040528060008152602001600060038111156101a5576101a4610391565b5b81525090565b6000604051905090565b600080fd5b600080fd5b600080fd5b600080fd5b6000601f19601f8301169050919050565b7f4e487b7100000000000000000000000000000000000000000000000000000000600052604160045260246000fd5b610212826101c9565b810181811067ffffffffffffffff82111715610231576102306101da565b5b80604052505050565b60006102446101ab565b90506102508282610209565b919050565b600067ffffffffffffffff8211156102705761026f6101da565b5b610279826101c9565b9050602081019050919050565b82818337600083830152505050565b60006102a86102a384610255565b61023a565b9050828152602081018484840111156102c4576102c36101c4565b5b6102cf848285610286565b509392505050565b600082601f8301126102ec576102eb6101bf565b5b81356102fc848260208601610295565b91505092915050565b60006020828403121561031b5761031a6101b5565b5b600082013567ffffffffffffffff811115610339576103386101ba565b5b610345848285016102d7565b91505092915050565b6000819050919050565b6103618161034e565b82525050565b600060208201905061037c6000830184610358565b92915050565b61038b8161034e565b82525050565b7f4e487b7100000000000000000000000000000000000000000000000000000000600052602160045260246000fd5b600481106103d1576103d0610391565b5b50565b60008190506103e2826103c0565b919050565b60006103f2826103d4565b9050919050565b610402816103e7565b82525050565b60408201600082015161041e6000850182610382565b50602082015161043160208501826103f9565b50505050565b600060408201905061044c6000830184610408565b9291505056fea2646970667358221220b30ab07051cdad4ed2c11b12a5588d5396a47df1a3fb780b8455493927e847c664736f6c63430008090033",
  "immutableReferences": {},
  "source": "// SPDX-License-Identifier: MIT\npragma solidity >=0.4.22 <0.9.0;\n\ncontract Produce {\n    enum SEASON {\n        WINTER,\n        FALL,\n        SUMMER,\n        SPRING\n    }\n\n    ProduceDetails produceDetails;\n\n    struct ProduceDetails {\n        uint256 seedType;\n        SEASON season;\n    }\n\n    constructor(uint256 _seedType) {\n        produceDetails.seedType = _seedType;\n    }\n\n    function getProduceDetails() public view returns (ProduceDetails memory) {\n        return produceDetails;\n    }\n\n    function setSeason(string memory _season) public returns (uint) {\n              bytes memory _seasonB = bytes(_season);\n        bytes32 Hash = keccak256(_seasonB);\n                // Loop to check\n        if (Hash == keccak256(\"Winter\") || Hash == keccak256(\"winter\")) produceDetails.season=SEASON.WINTER;\n\n        revert();\n\n}\n}\n",
  "sourcePath": "/Users/elansund/workspace/personal/Blockchain/contracts/Produce.sol",
  "compiler": {
    "name": "solc",
    "version": "0.8.9+commit.e5eed63a.Emscripten.clang"
  },
  "schemaVersion": "3.4.3",
  "updatedAt": "2021-11-07T22:36:38.276Z",
  "devdoc": {
    "kind": "dev",
    "methods": {},
    "version": 1
  },
  "userdoc": {
    "kind": "user",
    "methods": {},
    "version": 1
  }
}